{
  "contractName": "Project",
  "abi": [
    {
      "constant": true,
      "inputs": [],
      "name": "creator",
      "outputs": [
        {
          "name": "",
          "type": "address"
        }
      ],
      "payable": false,
      "stateMutability": "view",
      "type": "function"
    },
    {
      "constant": true,
      "inputs": [],
      "name": "deadline",
      "outputs": [
        {
          "name": "",
          "type": "uint256"
        }
      ],
      "payable": false,
      "stateMutability": "view",
      "type": "function"
    },
    {
      "constant": true,
      "inputs": [],
      "name": "goal",
      "outputs": [
        {
          "name": "",
          "type": "uint256"
        }
      ],
      "payable": false,
      "stateMutability": "view",
      "type": "function"
    },
    {
      "constant": true,
      "inputs": [
        {
          "name": "",
          "type": "address"
        }
      ],
      "name": "contributions",
      "outputs": [
        {
          "name": "",
          "type": "uint256"
        }
      ],
      "payable": false,
      "stateMutability": "view",
      "type": "function"
    },
    {
      "constant": true,
      "inputs": [],
      "name": "title",
      "outputs": [
        {
          "name": "",
          "type": "string"
        }
      ],
      "payable": false,
      "stateMutability": "view",
      "type": "function"
    },
    {
      "constant": true,
      "inputs": [],
      "name": "completeAt",
      "outputs": [
        {
          "name": "",
          "type": "uint256"
        }
      ],
      "payable": false,
      "stateMutability": "view",
      "type": "function"
    },
    {
      "constant": true,
      "inputs": [],
      "name": "description",
      "outputs": [
        {
          "name": "",
          "type": "string"
        }
      ],
      "payable": false,
      "stateMutability": "view",
      "type": "function"
    },
    {
      "constant": true,
      "inputs": [
        {
          "name": "",
          "type": "uint256"
        }
      ],
      "name": "requests",
      "outputs": [
        {
          "name": "description",
          "type": "string"
        },
        {
          "name": "value",
          "type": "uint256"
        },
        {
          "name": "recipient",
          "type": "address"
        },
        {
          "name": "completed",
          "type": "bool"
        },
        {
          "name": "numberOfVoters",
          "type": "uint256"
        }
      ],
      "payable": false,
      "stateMutability": "view",
      "type": "function"
    },
    {
      "constant": true,
      "inputs": [],
      "name": "minimumContribution",
      "outputs": [
        {
          "name": "",
          "type": "uint256"
        }
      ],
      "payable": false,
      "stateMutability": "view",
      "type": "function"
    },
    {
      "constant": true,
      "inputs": [],
      "name": "state",
      "outputs": [
        {
          "name": "",
          "type": "uint8"
        }
      ],
      "payable": false,
      "stateMutability": "view",
      "type": "function"
    },
    {
      "constant": true,
      "inputs": [],
      "name": "raisedAmount",
      "outputs": [
        {
          "name": "",
          "type": "uint256"
        }
      ],
      "payable": false,
      "stateMutability": "view",
      "type": "function"
    },
    {
      "constant": true,
      "inputs": [],
      "name": "totalContributors",
      "outputs": [
        {
          "name": "",
          "type": "uint256"
        }
      ],
      "payable": false,
      "stateMutability": "view",
      "type": "function"
    },
    {
      "inputs": [
        {
          "name": "_deadline",
          "type": "uint256"
        },
        {
          "name": "_goal",
          "type": "uint256"
        },
        {
          "name": "projectStarter",
          "type": "address"
        },
        {
          "name": "projectTitle",
          "type": "string"
        },
        {
          "name": "projectDescription",
          "type": "string"
        },
        {
          "name": "_minimumContribution",
          "type": "uint256"
        }
      ],
      "payable": false,
      "stateMutability": "nonpayable",
      "type": "constructor"
    },
    {
      "anonymous": false,
      "inputs": [
        {
          "indexed": false,
          "name": "contributor",
          "type": "address"
        },
        {
          "indexed": false,
          "name": "amount",
          "type": "uint256"
        },
        {
          "indexed": false,
          "name": "currentTotal",
          "type": "uint256"
        }
      ],
      "name": "FundingReceived",
      "type": "event"
    },
    {
      "anonymous": false,
      "inputs": [
        {
          "indexed": false,
          "name": "recipient",
          "type": "address"
        }
      ],
      "name": "CreatorPaid",
      "type": "event"
    },
    {
      "constant": false,
      "inputs": [],
      "name": "contribute",
      "outputs": [],
      "payable": true,
      "stateMutability": "payable",
      "type": "function"
    },
    {
      "constant": false,
      "inputs": [],
      "name": "checkIfFundingCompleteOrExpired",
      "outputs": [],
      "payable": false,
      "stateMutability": "nonpayable",
      "type": "function"
    },
    {
      "constant": true,
      "inputs": [],
      "name": "getBalance",
      "outputs": [
        {
          "name": "",
          "type": "uint256"
        }
      ],
      "payable": false,
      "stateMutability": "view",
      "type": "function"
    },
    {
      "constant": false,
      "inputs": [],
      "name": "getRefund",
      "outputs": [],
      "payable": false,
      "stateMutability": "nonpayable",
      "type": "function"
    },
    {
      "constant": true,
      "inputs": [],
      "name": "getDetails",
      "outputs": [
        {
          "name": "projectStarter",
          "type": "address"
        },
        {
          "name": "projectTitle",
          "type": "string"
        },
        {
          "name": "projectDescription",
          "type": "string"
        },
        {
          "name": "projectDeadline",
          "type": "uint256"
        },
        {
          "name": "currentAmount",
          "type": "uint256"
        },
        {
          "name": "goalAmount",
          "type": "uint256"
        }
      ],
      "payable": false,
      "stateMutability": "view",
      "type": "function"
    },
    {
      "constant": false,
      "inputs": [
        {
          "name": "_description",
          "type": "string"
        },
        {
          "name": "_recipient",
          "type": "address"
        },
        {
          "name": "_value",
          "type": "uint256"
        }
      ],
      "name": "createSpendingRequest",
      "outputs": [],
      "payable": false,
      "stateMutability": "nonpayable",
      "type": "function"
    },
    {
      "constant": false,
      "inputs": [
        {
          "name": "index",
          "type": "uint256"
        }
      ],
      "name": "voteForRequest",
      "outputs": [],
      "payable": false,
      "stateMutability": "nonpayable",
      "type": "function"
    },
    {
      "constant": false,
      "inputs": [
        {
          "name": "index",
          "type": "uint256"
        }
      ],
      "name": "payOut",
      "outputs": [],
      "payable": false,
      "stateMutability": "nonpayable",
      "type": "function"
    }
  ],
  "bytecode": "0x608060405260006003556000600860006101000a81548160ff021916908360028111156200002957fe5b02179055503480156200003b57600080fd5b506040516200187e3803806200187e833981018060405260c08110156200006157600080fd5b8101908080519060200190929190805190602001909291908051906020019092919080516401000000008111156200009857600080fd5b82810190506020810184811115620000af57600080fd5b8151856001820283011164010000000082111715620000cd57600080fd5b50509291906020018051640100000000811115620000ea57600080fd5b828101905060208101848111156200010157600080fd5b81518560018202830111640100000000821117156200011f57600080fd5b505092919060200180519060200190929190505050836000806101000a81548173ffffffffffffffffffffffffffffffffffffffff021916908373ffffffffffffffffffffffffffffffffffffffff16021790555082600690805190602001906200018c929190620001c9565b508160079080519060200190620001a5929190620001c9565b50846001819055508060058190555085430160028190555050505050505062000278565b828054600181600116156101000203166002900490600052602060002090601f016020900481019282601f106200020c57805160ff19168380011785556200023d565b828001600101855582156200023d579182015b828111156200023c5782518255916020019190600101906200021f565b5b5090506200024c919062000250565b5090565b6200027591905b808211156200027157600081600090555060010162000257565b5090565b90565b6115f680620002886000396000f3fe60806040526004361061011f5760003560e01c806386f32586116100a0578063d01ca19211610064578063d01ca192146105a4578063d7bb99ba14610696578063da333ca6146106a0578063f251fc8c146106db578063fbbf93a0146107065761011f565b806386f32586146104e7578063937e09b1146104fe578063b2d5ae4414610529578063c19d93fb14610540578063c59ee1dc146105795761011f565b80634a79d50c116100e75780634a79d50c146102615780634c4cea5a146102f1578063700127ef1461031c5780637284e4161461035757806381d12c58146103e75761011f565b806302d05d3f1461012457806312065fe01461017b57806329dcb0cf146101a657806340193883146101d157806342e94c90146101fc575b600080fd5b34801561013057600080fd5b5061013961084a565b604051808273ffffffffffffffffffffffffffffffffffffffff1673ffffffffffffffffffffffffffffffffffffffff16815260200191505060405180910390f35b34801561018757600080fd5b5061019061086f565b6040518082815260200191505060405180910390f35b3480156101b257600080fd5b506101bb61088e565b6040518082815260200191505060405180910390f35b3480156101dd57600080fd5b506101e6610894565b6040518082815260200191505060405180910390f35b34801561020857600080fd5b5061024b6004803603602081101561021f57600080fd5b81019080803573ffffffffffffffffffffffffffffffffffffffff16906020019092919050505061089a565b6040518082815260200191505060405180910390f35b34801561026d57600080fd5b506102766108b2565b6040518080602001828103825283818151815260200191508051906020019080838360005b838110156102b657808201518184015260208101905061029b565b50505050905090810190601f1680156102e35780820380516001836020036101000a031916815260200191505b509250505060405180910390f35b3480156102fd57600080fd5b50610306610950565b6040518082815260200191505060405180910390f35b34801561032857600080fd5b506103556004803603602081101561033f57600080fd5b8101908080359060200190929190505050610956565b005b34801561036357600080fd5b5061036c610a8e565b6040518080602001828103825283818151815260200191508051906020019080838360005b838110156103ac578082015181840152602081019050610391565b50505050905090810190601f1680156103d95780820380516001836020036101000a031916815260200191505b509250505060405180910390f35b3480156103f357600080fd5b506104206004803603602081101561040a57600080fd5b8101908080359060200190929190505050610b2c565b60405180806020018681526020018573ffffffffffffffffffffffffffffffffffffffff1673ffffffffffffffffffffffffffffffffffffffff16815260200184151515158152602001838152602001828103825287818151815260200191508051906020019080838360005b838110156104a857808201518184015260208101905061048d565b50505050905090810190601f1680156104d55780820380516001836020036101000a031916815260200191505b50965050505050505060405180910390f35b3480156104f357600080fd5b506104fc610c34565b005b34801561050a57600080fd5b50610513610ca1565b6040518082815260200191505060405180910390f35b34801561053557600080fd5b5061053e610ca7565b005b34801561054c57600080fd5b50610555610dde565b6040518082600281111561056557fe5b60ff16815260200191505060405180910390f35b34801561058557600080fd5b5061058e610df1565b6040518082815260200191505060405180910390f35b3480156105b057600080fd5b50610694600480360360608110156105c757600080fd5b81019080803590602001906401000000008111156105e457600080fd5b8201836020820111156105f657600080fd5b8035906020019184600183028401116401000000008311171561061857600080fd5b91908080601f016020809104026020016040519081016040528093929190818152602001838380828437600081840152601f19601f820116905080830192505050505050509192919290803573ffffffffffffffffffffffffffffffffffffffff16906020019092919080359060200190929190505050610df7565b005b61069e610f7b565b005b3480156106ac57600080fd5b506106d9600480360360208110156106c357600080fd5b8101908080359060200190929190505050611107565b005b3480156106e757600080fd5b506106f06112d1565b6040518082815260200191505060405180910390f35b34801561071257600080fd5b5061071b6112d7565b604051808773ffffffffffffffffffffffffffffffffffffffff1673ffffffffffffffffffffffffffffffffffffffff1681526020018060200180602001868152602001858152602001848152602001838103835288818151815260200191508051906020019080838360005b838110156107a3578082015181840152602081019050610788565b50505050905090810190601f1680156107d05780820380516001836020036101000a031916815260200191505b50838103825287818151815260200191508051906020019080838360005b838110156108095780820151818401526020810190506107ee565b50505050905090810190601f1680156108365780820380516001836020036101000a031916815260200191505b509850505050505050505060405180910390f35b6000809054906101000a900473ffffffffffffffffffffffffffffffffffffffff1681565b60003073ffffffffffffffffffffffffffffffffffffffff1631905090565b60025481565b60015481565b60096020528060005260406000206000915090505481565b60068054600181600116156101000203166002900480601f0160208091040260200160405190810160405280929190818152602001828054600181600116156101000203166002900480156109485780601f1061091d57610100808354040283529160200191610948565b820191906000526020600020905b81548152906001019060200180831161092b57829003601f168201915b505050505081565b60045481565b6000600c828154811061096557fe5b906000526020600020906004020190506000600960003373ffffffffffffffffffffffffffffffffffffffff1673ffffffffffffffffffffffffffffffffffffffff16815260200190815260200160002054116109c157600080fd5b60001515600b60003373ffffffffffffffffffffffffffffffffffffffff1673ffffffffffffffffffffffffffffffffffffffff16815260200190815260200160002060009054906101000a900460ff16151514610a1e57600080fd5b6001600b60003373ffffffffffffffffffffffffffffffffffffffff1673ffffffffffffffffffffffffffffffffffffffff16815260200190815260200160002060006101000a81548160ff02191690831515021790555080600301600081548092919060010191905055505050565b60078054600181600116156101000203166002900480601f016020809104026020016040519081016040528092919081815260200182805460018160011615610100020316600290048015610b245780601f10610af957610100808354040283529160200191610b24565b820191906000526020600020905b815481529060010190602001808311610b0757829003601f168201915b505050505081565b600c8181548110610b3957fe5b9060005260206000209060040201600091509050806000018054600181600116156101000203166002900480601f016020809104026020016040519081016040528092919081815260200182805460018160011615610100020316600290048015610be55780601f10610bba57610100808354040283529160200191610be5565b820191906000526020600020905b815481529060010190602001808311610bc857829003601f168201915b5050505050908060010154908060020160009054906101000a900473ffffffffffffffffffffffffffffffffffffffff16908060020160149054906101000a900460ff16908060030154905085565b60015460035410610c68576002600860006101000a81548160ff02191690836002811115610c5e57fe5b0217905550610c98565b600254431115610c97576001600860006101000a81548160ff02191690836002811115610c9157fe5b02179055505b5b43600481905550565b60055481565b6002544311610cb557600080fd5b60015460035410610cc557600080fd5b6000600960003373ffffffffffffffffffffffffffffffffffffffff1673ffffffffffffffffffffffffffffffffffffffff1681526020019081526020016000205411610d1157600080fd5b3373ffffffffffffffffffffffffffffffffffffffff166108fc600960003373ffffffffffffffffffffffffffffffffffffffff1673ffffffffffffffffffffffffffffffffffffffff168152602001908152602001600020549081150290604051600060405180830381858888f19350505050158015610d96573d6000803e3d6000fd5b506000600960003373ffffffffffffffffffffffffffffffffffffffff1673ffffffffffffffffffffffffffffffffffffffff16815260200190815260200160002081905550565b600860009054906101000a900460ff1681565b60035481565b6000809054906101000a900473ffffffffffffffffffffffffffffffffffffffff1673ffffffffffffffffffffffffffffffffffffffff163373ffffffffffffffffffffffffffffffffffffffff1614610e5057600080fd5b6001546003541015610e6157600080fd5b610e696114de565b6040518060a001604052808581526020018381526020018473ffffffffffffffffffffffffffffffffffffffff16815260200160001515815260200160008152509050600c81908060018154018082558091505090600182039060005260206000209060040201600090919290919091506000820151816000019080519060200190610ef6929190611525565b506020820151816001015560408201518160020160006101000a81548173ffffffffffffffffffffffffffffffffffffffff021916908373ffffffffffffffffffffffffffffffffffffffff16021790555060608201518160020160146101000a81548160ff0219169083151502179055506080820151816003015550505050505050565b6000806002811115610f8957fe5b600860009054906101000a900460ff166002811115610fa457fe5b14610fae57600080fd5b6005543411610fbc57600080fd5b6002544310610fca57600080fd5b6000600960003373ffffffffffffffffffffffffffffffffffffffff1673ffffffffffffffffffffffffffffffffffffffff16815260200190815260200160002054141561102a576110286001600a5461145690919063ffffffff16565b505b34600960003373ffffffffffffffffffffffffffffffffffffffff1673ffffffffffffffffffffffffffffffffffffffff16815260200190815260200160002060008282540192505081905550346003600082825401925050819055507f5cdc4ab8d637538ead6cc1904d4160343656c8c82bd266635cfd31ac008fffe03334600354604051808473ffffffffffffffffffffffffffffffffffffffff1673ffffffffffffffffffffffffffffffffffffffff168152602001838152602001828152602001935050505060405180910390a1611104610c34565b50565b6000809054906101000a900473ffffffffffffffffffffffffffffffffffffffff1673ffffffffffffffffffffffffffffffffffffffff163373ffffffffffffffffffffffffffffffffffffffff161461116057600080fd5b6000600c828154811061116f57fe5b90600052602060002090600402019050600015158160020160149054906101000a900460ff161515146111a157600080fd5b6002600a54816111ad57fe5b048160030154116111bd57600080fd5b8060020160009054906101000a900473ffffffffffffffffffffffffffffffffffffffff1673ffffffffffffffffffffffffffffffffffffffff166108fc82600101549081150290604051600060405180830381858888f1935050505015801561122b573d6000803e3d6000fd5b507f2f256415efc8561af8db667cb242964b19be7380f379ccdafaa0e54a6f6b70696000809054906101000a900473ffffffffffffffffffffffffffffffffffffffff16604051808273ffffffffffffffffffffffffffffffffffffffff1673ffffffffffffffffffffffffffffffffffffffff16815260200191505060405180910390a160018160020160146101000a81548160ff0219169083151502179055505050565b600a5481565b600060608060008060008060009054906101000a900473ffffffffffffffffffffffffffffffffffffffff16955060068054600181600116156101000203166002900480601f01602080910402602001604051908101604052809291908181526020018280546001816001161561010002031660029004801561139b5780601f106113705761010080835404028352916020019161139b565b820191906000526020600020905b81548152906001019060200180831161137e57829003601f168201915b5050505050945060078054600181600116156101000203166002900480601f0160208091040260200160405190810160405280929190818152602001828054600181600116156101000203166002900480156114385780601f1061140d57610100808354040283529160200191611438565b820191906000526020600020905b81548152906001019060200180831161141b57829003601f168201915b50505050509350600254925060035491506001549050909192939495565b6000808284019050838110156114d4576040517f08c379a000000000000000000000000000000000000000000000000000000000815260040180806020018281038252601b8152602001807f536166654d6174683a206164646974696f6e206f766572666c6f77000000000081525060200191505060405180910390fd5b8091505092915050565b6040518060a001604052806060815260200160008152602001600073ffffffffffffffffffffffffffffffffffffffff168152602001600015158152602001600081525090565b828054600181600116156101000203166002900490600052602060002090601f016020900481019282601f1061156657805160ff1916838001178555611594565b82800160010185558215611594579182015b82811115611593578251825591602001919060010190611578565b5b5090506115a191906115a5565b5090565b6115c791905b808211156115c35760008160009055506001016115ab565b5090565b9056fea165627a7a7230582047dcef25be641cb111ffd202ff49076cdd1f7d7e0dd039ec9a0a917ca80a5af80029",
  "source": "// SPDX-License-Identifier: MIT\r\npragma solidity >=0.4.22 <0.8.0;\r\nimport \"../interfaces/OpenZepplin/SafeMath.sol\";\r\n\r\ncontract Project {\r\n    using SafeMath for uint256;\r\n\r\n    //state variables\r\n    address public creator;\r\n    uint256 public goal;\r\n    uint256 public deadline;\r\n    uint256 public raisedAmount = 0;\r\n    uint256 public completeAt;\r\n    uint256 public minimumContribution;\r\n    string public title;\r\n    string public description;\r\n    State public state = State.Fundraising; // initialize on create\r\n    mapping(address => uint256) public contributions;\r\n    uint256 public totalContributors;\r\n\r\n    // Event that will be emitted whenever funding will be received\r\n    event FundingReceived(\r\n        address contributor,\r\n        uint256 amount,\r\n        uint256 currentTotal\r\n    );\r\n    enum State {Fundraising, Expired, Successful}\r\n    // Event that will be emitted whenever the project starter has received the funds\r\n    event CreatorPaid(address recipient);\r\n\r\n    // Modifier to check if the function caller is the project creator\r\n    modifier isCreator() {\r\n        require(msg.sender == creator);\r\n        _;\r\n    }\r\n    modifier goalReached() {\r\n        require(raisedAmount >= goal);\r\n        _;\r\n    }\r\n\r\n    // Modifier to check current state\r\n    modifier inState(State _state) {\r\n        require(state == _state);\r\n        _;\r\n    }\r\n    struct Request {\r\n        string description;\r\n        uint256 value;\r\n        address payable recipient;\r\n        bool completed;\r\n        uint256 numberOfVoters;\r\n    }\r\n    mapping(address => bool) voters;\r\n    Request[] public requests;\r\n\r\n    constructor(\r\n        uint256 _deadline,\r\n        uint256 _goal,\r\n        address payable projectStarter,\r\n        string memory projectTitle,\r\n        string memory projectDescription,\r\n        uint256 _minimumContribution\r\n    ) public {\r\n        creator = projectStarter;\r\n        title = projectTitle;\r\n        description = projectDescription;\r\n        goal = _goal;\r\n        minimumContribution = _minimumContribution;\r\n        deadline = block.number + _deadline;\r\n    }\r\n\r\n    /** @dev Function to fund a certain project.\r\n     */\r\n    function contribute() external payable inState(State.Fundraising) {\r\n        require(msg.value > minimumContribution);\r\n        require(block.number < deadline);\r\n        if (contributions[msg.sender] == 0) {\r\n            totalContributors.add(1);\r\n        }\r\n        contributions[msg.sender] += msg.value;\r\n        raisedAmount += msg.value;\r\n        emit FundingReceived(msg.sender, msg.value, raisedAmount);\r\n        checkIfFundingCompleteOrExpired();\r\n    }\r\n\r\n    /** @dev Function to change the project state depending on conditions.\r\n     */\r\n    function checkIfFundingCompleteOrExpired() public {\r\n        if (raisedAmount >= goal) {\r\n            state = State.Successful;\r\n        } else if (block.number > deadline) {\r\n            state = State.Expired;\r\n        }\r\n        completeAt = block.number;\r\n    }\r\n\r\n    /** @dev Function to get balance .\r\n     */\r\n    function getBalance() public view returns (uint256) {\r\n        return address(this).balance;\r\n    }\r\n\r\n    /** @dev Function to retrieve donated amount when a project expires and when a goal is not met.\r\n     */\r\n    function getRefund() public {\r\n        require(block.number > deadline);\r\n        require(raisedAmount < goal);\r\n        require(contributions[msg.sender] > 0);\r\n\r\n        msg.sender.transfer(contributions[msg.sender]);\r\n        contributions[msg.sender] = 0;\r\n    }\r\n\r\n    /** @dev Function to get specific information about the project.\r\n     \r\n     */\r\n    function getDetails()\r\n        public\r\n        view\r\n        returns (\r\n            address projectStarter,\r\n            string memory projectTitle,\r\n            string memory projectDescription,\r\n            uint256 projectDeadline,\r\n            uint256 currentAmount,\r\n            uint256 goalAmount\r\n        )\r\n    {\r\n        projectStarter = creator;\r\n        projectTitle = title;\r\n        projectDescription = description;\r\n        projectDeadline = deadline;\r\n        currentAmount = raisedAmount;\r\n        goalAmount = goal;\r\n    }\r\n\r\n    /** @dev Function to create a spending request by project creator\r\n     */\r\n    function createSpendingRequest(\r\n        string memory _description,\r\n        address payable _recipient,\r\n        uint256 _value\r\n    ) public isCreator goalReached {\r\n        Request memory newRequest = Request({\r\n            description: _description,\r\n            value: _value,\r\n            recipient: _recipient,\r\n            numberOfVoters: 0,\r\n            completed: false\r\n        });\r\n\r\n        requests.push(newRequest);\r\n    }\r\n\r\n    /** @dev Function to vote for a spending request\r\n     */\r\n    function voteForRequest(uint256 index) public {\r\n        Request storage thisRequest = requests[index];\r\n        require(contributions[msg.sender] > 0);\r\n        require(voters[msg.sender] == false);\r\n        voters[msg.sender] = true;\r\n        thisRequest.numberOfVoters++;\r\n    }\r\n\r\n    /** @dev Function to payout for a spending request\r\n     */\r\n    function payOut(uint256 index) public isCreator {\r\n        Request storage thisRequest = requests[index];\r\n        require(thisRequest.completed == false);\r\n        require(thisRequest.numberOfVoters > totalContributors / 2); //more than 50% voted\r\n        thisRequest.recipient.transfer(thisRequest.value);\r\n        emit CreatorPaid(creator);\r\n        thisRequest.completed = true;\r\n    }\r\n}\r\n",
  "sourcePath": "C:\\Users\\HP\\Desktop\\programming-resources\\crowdfunding-dapp\\contracts\\Project.sol",
  "compiler": {
    "name": "solc",
    "version": "0.5.8+commit.23d335f2.Emscripten.clang"
  },
  "schemaVersion": "3.0.10",
  "updatedAt": "2020-09-17T10:00:49.192Z",
  "devdoc": {
    "methods": {
      "checkIfFundingCompleteOrExpired()": {
        "details": "Function to change the project state depending on conditions.\r"
      },
      "contribute()": {
        "details": "Function to fund a certain project.\r"
      },
      "createSpendingRequest(string,address,uint256)": {
        "details": "Function to create a spending request by project creator\r"
      },
      "getBalance()": {
        "details": "Function to get balance .\r"
      },
      "getDetails()": {
        "details": "Function to get specific information about the project.\r"
      },
      "getRefund()": {
        "details": "Function to retrieve donated amount when a project expires and when a goal is not met.\r"
      },
      "payOut(uint256)": {
        "details": "Function to payout for a spending request\r"
      },
      "voteForRequest(uint256)": {
        "details": "Function to vote for a spending request\r"
      }
    }
  },
  "userdoc": {
    "methods": {}
  }
}